8=FIX.4.4|9=79|35=A|34=1|49=CLIENT|52=20240909-09:28:19.000|56=MARKET_MAKER|98=0|108=60|141=Y|10=143|8=FIX.4.4|9=119|35=V|34=2|49=CLIENT|52=20240909-09:28:25.000|56=MARKET_MAKER|146=1|55=USD/BRL|262=655933|263=1|264=0|267=2|269=0|269=1|10=138|8=FIX.4.4|9=95|35=V|34=3|49=CLIENT|52=20240909-09:28:27.000|56=MARKET_MAKER|146=1|55=USD/BRL|262=115540|263=2|10=026|8=FIX.4.4|9=120|35=D|34=4|49=CLIENT|52=20240909-09:28:28.000|56=MARKET_MAKER|11=202009|38=100|40=1|54=1|55=USD/BRL|60=20240909-09:28:28|10=224|8=FIX.4.4|9=110|35=3|34=5|49=CLIENT|52=20240909-09:28:28.000|56=MARKET_MAKER|45=5|58=Required tag missing|371=151|372=8|373=1|10=042|8=FIX.4.4|9=120|35=D|34=6|49=CLIENT|52=20240909-09:28:29.000|56=MARKET_MAKER|11=482376|38=100|40=1|54=1|55=USD/BRL|60=20240909-09:28:29|10=245|8=FIX.4.4|9=110|35=3|34=7|49=CLIENT|52=20240909-09:28:29.000|56=MARKET_MAKER|45=6|58=Required tag missing|371=151|372=8|373=1|10=046|8=FIX.4.4|9=120|35=D|34=8|49=CLIENT|52=20240909-09:28:30.000|56=MARKET_MAKER|11=978139|38=100|40=1|54=2|55=USD/BRL|60=20240909-09:28:30|10=239|8=FIX.4.4|9=110|35=3|34=9|49=CLIENT|52=20240909-09:28:30.000|56=MARKET_MAKER|45=7|58=Required tag missing|371=151|372=8|373=1|10=041|8=FIX.4.4|9=114|35=F|34=10|49=CLIENT|52=20240909-09:28:33.000|56=MARKET_MAKER|11=331546|41=4|54=1|55=USD/BRL|60=20240909-09:28:33|10=221|8=FIX.4.4|9=84|35=H|34=11|49=CLIENT|52=20240909-09:28:37.000|56=MARKET_MAKER|11=23|54=1|55=USD/BRL|10=250|8=FIX.4.4|9=121|35=D|34=12|49=CLIENT|52=20240909-09:28:39.000|56=MARKET_MAKER|11=536534|38=100|40=1|54=1|55=USD/BRL|60=20240909-09:28:39|10=033|8=FIX.4.4|9=83|35=H|34=13|49=CLIENT|52=20240909-09:28:42.000|56=MARKET_MAKER|11=d|54=1|55=USD/BRL|10=246|8=FIX.4.4|9=85|35=H|34=14|49=CLIENT|52=20240909-09:28:52.000|56=MARKET_MAKER|11=234|54=1|55=USD/BRL|10=047|8=FIX.4.4|9=62|35=0|34=15|49=CLIENT|52=20240909-09:29:52.000|56=MARKET_MAKER|10=096|8=FIX.4.4|9=62|35=0|34=16|49=CLIENT|52=20240909-09:30:52.000|56=MARKET_MAKER|10=089|8=FIX.4.4|9=62|35=0|34=17|49=CLIENT|52=20240909-09:31:52.000|56=MARKET_MAKER|10=091|8=FIX.4.4|9=62|35=0|34=18|49=CLIENT|52=20240909-09:32:52.000|56=MARKET_MAKER|10=093|8=FIX.4.4|9=62|35=0|34=19|49=CLIENT|52=20240909-09:33:52.000|56=MARKET_MAKER|10=095|8=FIX.4.4|9=62|35=0|34=20|49=CLIENT|52=20240909-09:34:52.000|56=MARKET_MAKER|10=088|