8=FIX.4.4|9=79|35=A|34=1|49=MARKET_MAKER|52=20241009-15:10:00.000|56=CLIENT|98=0|108=90|141=Y|10=116|8=FIX.4.4|9=61|35=0|34=2|49=MARKET_MAKER|52=20241009-15:11:30.000|56=CLIENT|10=019|8=FIX.4.4|9=61|35=0|34=3|49=MARKET_MAKER|52=20241009-15:13:00.000|56=CLIENT|10=019|8=FIX.4.4|9=61|35=0|34=4|49=MARKET_MAKER|52=20241009-15:14:30.000|56=CLIENT|10=024|8=FIX.4.4|9=61|35=0|34=5|49=MARKET_MAKER|52=20241009-15:16:00.000|56=CLIENT|10=024|8=FIX.4.4|9=61|35=0|34=6|49=MARKET_MAKER|52=20241009-15:17:30.000|56=CLIENT|10=029|8=FIX.4.4|9=61|35=0|34=7|49=MARKET_MAKER|52=20241009-15:19:00.000|56=CLIENT|10=029|8=FIX.4.4|9=61|35=0|34=8|49=MARKET_MAKER|52=20241009-15:20:30.000|56=CLIENT|10=025|