8=FIX.4.4|9=79|35=A|34=1|49=MARKET_MAKER|52=20240909-09:28:19.000|56=CLIENT|98=0|108=60|141=Y|10=143|8=FIX.4.4|9=159|35=W|34=2|49=MARKET_MAKER|52=20240909-09:28:25.000|56=CLIENT|55=USD/BRL|262=655933|268=2|269=0|270=134.654262851529|271=100|269=1|270=134.674262851529|271=100|10=110|8=FIX.4.4|9=159|35=W|34=3|49=MARKET_MAKER|52=20240909-09:28:26.000|56=CLIENT|55=USD/BRL|262=655933|268=2|269=0|270=135.074735034943|271=100|269=1|270=135.094735034943|271=100|10=102|8=FIX.4.4|9=110|35=3|34=4|49=MARKET_MAKER|52=20240909-09:28:27.000|56=CLIENT|45=3|58=Required tag missing|371=264|372=V|373=1|10=073|8=FIX.4.4|9=178|35=8|34=5|49=MARKET_MAKER|52=20240909-09:28:28.000|56=CLIENT|6=135.084735034943|11=202009|14=100|17=924414|31=135.084735034943|32=100|37=513359|38=100|39=0|54=1|55=USD/BRL|150=0|10=129|8=FIX.4.4|9=178|35=8|34=6|49=MARKET_MAKER|52=20240909-09:28:29.000|56=CLIENT|6=135.084735034943|11=482376|14=100|17=820710|31=135.084735034943|32=100|37=731443|38=100|39=0|54=1|55=USD/BRL|150=0|10=138|8=FIX.4.4|9=178|35=8|34=7|49=MARKET_MAKER|52=20240909-09:28:30.000|56=CLIENT|6=135.084735034943|11=978139|14=100|17=364619|31=135.084735034943|32=100|37=786705|38=100|39=0|54=2|55=USD/BRL|150=0|10=161|8=FIX.4.4|9=159|35=W|34=8|49=MARKET_MAKER|52=20240909-09:28:32.000|56=CLIENT|55=USD/BRL|262=655933|268=2|269=0|270=134.937376475182|271=100|269=1|270=134.957376475182|271=100|10=128|8=FIX.4.4|9=159|35=W|34=9|49=MARKET_MAKER|52=20240909-09:28:37.000|56=CLIENT|55=USD/BRL|262=655933|268=2|269=0|270=135.161004408269|271=100|269=1|270=135.181004408269|271=100|10=094|8=FIX.4.4|9=160|35=W|34=10|49=MARKET_MAKER|52=20240909-09:28:42.000|56=CLIENT|55=USD/BRL|262=655933|268=2|269=0|270=134.976154708883|271=100|269=1|270=134.996154708883|271=100|10=170|8=FIX.4.4|9=160|35=W|34=11|49=MARKET_MAKER|52=20240909-09:28:47.000|56=CLIENT|55=USD/BRL|262=655933|268=2|269=0|270=134.578261341471|271=100|269=1|270=134.598261341471|271=100|10=142|8=FIX.4.4|9=160|35=W|34=12|49=MARKET_MAKER|52=20240909-09:28:52.000|56=CLIENT|55=USD/BRL|262=655933|268=2|269=0|270=135.009504690567|271=100|269=1|270=135.029504690567|271=100|10=145|8=FIX.4.4|9=160|35=W|34=13|49=MARKET_MAKER|52=20240909-09:28:57.000|56=CLIENT|55=USD/BRL|262=655933|268=2|269=0|270=134.608041989497|271=100|269=1|270=134.628041989497|271=100|10=177|8=FIX.4.4|9=160|35=W|34=14|49=MARKET_MAKER|52=20240909-09:29:02.000|56=CLIENT|55=USD/BRL|262=655933|268=2|269=0|270=134.623299643397|271=100|269=1|270=134.643299643397|271=100|10=165|8=FIX.4.4|9=160|35=W|34=15|49=MARKET_MAKER|52=20240909-09:29:07.000|56=CLIENT|55=USD/BRL|262=655933|268=2|269=0|270=134.496130347399|271=100|269=1|270=134.516130347399|271=100|10=152|8=FIX.4.4|9=160|35=W|34=16|49=MARKET_MAKER|52=20240909-09:29:12.000|56=CLIENT|55=USD/BRL|262=655933|268=2|269=0|270=134.722739092927|271=100|269=1|270=134.742739092927|271=100|10=160|8=FIX.4.4|9=160|35=W|34=17|49=MARKET_MAKER|52=20240909-09:29:17.000|56=CLIENT|55=USD/BRL|262=655933|268=2|269=0|270=134.948583573161|271=100|269=1|270=134.968583573161|271=100|10=168|8=FIX.4.4|9=158|35=W|34=18|49=MARKET_MAKER|52=20240909-09:29:22.000|56=CLIENT|55=USD/BRL|262=655933|268=2|269=0|270=134.50810249817|271=100|269=1|270=134.52810249817|271=100|10=046|8=FIX.4.4|9=160|35=W|34=19|49=MARKET_MAKER|52=20240909-09:29:27.000|56=CLIENT|55=USD/BRL|262=655933|268=2|269=0|270=134.966737441326|271=100|269=1|270=134.986737441326|271=100|10=167|8=FIX.4.4|9=158|35=W|34=20|49=MARKET_MAKER|52=20240909-09:29:32.000|56=CLIENT|55=USD/BRL|262=655933|268=2|269=0|270=134.61736954252|271=100|269=1|270=134.63736954252|271=100|10=050|8=FIX.4.4|9=160|35=W|34=21|49=MARKET_MAKER|52=20240909-09:29:37.000|56=CLIENT|55=USD/BRL|262=655933|268=2|269=0|270=134.980183599774|271=100|269=1|270=135.000183599774|271=100|10=167|8=FIX.4.4|9=160|35=W|34=22|49=MARKET_MAKER|52=20240909-09:29:42.000|56=CLIENT|55=USD/BRL|262=655933|268=2|269=0|270=134.564165550992|271=100|269=1|270=134.584165550992|271=100|10=156|8=FIX.4.4|9=160|35=W|34=23|49=MARKET_MAKER|52=20240909-09:29:47.000|56=CLIENT|55=USD/BRL|262=655933|268=2|269=0|270=134.528041444204|271=100|269=1|270=134.548041444204|271=100|10=124|8=FIX.4.4|9=160|35=W|34=24|49=MARKET_MAKER|52=20240909-09:29:52.000|56=CLIENT|55=USD/BRL|262=655933|268=2|269=0|270=134.671411973719|271=100|269=1|270=134.691411973719|271=100|10=157|8=FIX.4.4|9=160|35=W|34=25|49=MARKET_MAKER|52=20240909-09:29:57.000|56=CLIENT|55=USD/BRL|262=655933|268=2|269=0|270=134.784511379434|271=100|269=1|270=134.804511379434|271=100|10=154|8=FIX.4.4|9=160|35=W|34=26|49=MARKET_MAKER|52=20240909-09:30:02.000|56=CLIENT|55=USD/BRL|262=655933|268=2|269=0|270=134.609952906214|271=100|269=1|270=134.629952906214|271=100|10=140|8=FIX.4.4|9=160|35=W|34=27|49=MARKET_MAKER|52=20240909-09:30:07.000|56=CLIENT|55=USD/BRL|262=655933|268=2|269=0|270=134.111626344982|271=100|269=1|270=134.131626344982|271=100|10=134|8=FIX.4.4|9=160|35=W|34=28|49=MARKET_MAKER|52=20240909-09:30:12.000|56=CLIENT|55=USD/BRL|262=655933|268=2|269=0|270=133.665765557157|271=100|269=1|270=133.685765557157|271=100|10=165|8=FIX.4.4|9=160|35=W|34=29|49=MARKET_MAKER|52=20240909-09:30:17.000|56=CLIENT|55=USD/BRL|262=655933|268=2|269=0|270=134.000220282834|271=100|269=1|270=134.020220282834|271=100|10=105|8=FIX.4.4|9=160|35=W|34=30|49=MARKET_MAKER|52=20240909-09:30:22.000|56=CLIENT|55=USD/BRL|262=655933|268=2|269=0|270=134.455923772291|271=100|269=1|270=134.475923772291|271=100|10=143|8=FIX.4.4|9=158|35=W|34=31|49=MARKET_MAKER|52=20240909-09:30:27.000|56=CLIENT|55=USD/BRL|262=655933|268=2|269=0|270=134.45593189047|271=100|269=1|270=134.47593189047|271=100|10=058|8=FIX.4.4|9=160|35=W|34=32|49=MARKET_MAKER|52=20240909-09:30:32.000|56=CLIENT|55=USD/BRL|262=655933|268=2|269=0|270=134.430307714898|271=100|269=1|270=134.450307714898|271=100|10=142|8=FIX.4.4|9=160|35=W|34=33|49=MARKET_MAKER|52=20240909-09:30:37.000|56=CLIENT|55=USD/BRL|262=655933|268=2|269=0|270=134.423733044411|271=100|269=1|270=134.443733044411|271=100|10=112|8=FIX.4.4|9=160|35=W|34=34|49=MARKET_MAKER|52=20240909-09:30:42.000|56=CLIENT|55=USD/BRL|262=655933|268=2|269=0|270=133.967110096816|271=100|269=1|270=133.987110096816|271=100|10=143|8=FIX.4.4|9=160|35=W|34=35|49=MARKET_MAKER|52=20240909-09:30:47.000|56=CLIENT|55=USD/BRL|262=655933|268=2|269=0|270=133.632167333702|271=100|269=1|270=133.652167333702|271=100|10=127|8=FIX.4.4|9=160|35=W|34=36|49=MARKET_MAKER|52=20240909-09:30:52.000|56=CLIENT|55=USD/BRL|262=655933|268=2|269=0|270=133.316090876128|271=100|269=1|270=133.336090876128|271=100|10=140|8=FIX.4.4|9=160|35=W|34=37|49=MARKET_MAKER|52=20240909-09:30:57.000|56=CLIENT|55=USD/BRL|262=655933|268=2|269=0|270=132.976778119153|271=100|269=1|270=132.996778119153|271=100|10=170|8=FIX.4.4|9=160|35=W|34=38|49=MARKET_MAKER|52=20240909-09:31:02.000|56=CLIENT|55=USD/BRL|262=655933|268=2|269=0|270=133.190693131777|271=100|269=1|270=133.210693131777|271=100|10=135|8=FIX.4.4|9=160|35=W|34=39|49=MARKET_MAKER|52=20240909-09:31:07.000|56=CLIENT|55=USD/BRL|262=655933|268=2|269=0|270=133.573631273744|271=100|269=1|270=133.593631273744|271=100|10=146|8=FIX.4.4|9=160|35=W|34=40|49=MARKET_MAKER|52=20240909-09:31:12.000|56=CLIENT|55=USD/BRL|262=655933|268=2|269=0|270=133.080483725385|271=100|269=1|270=133.100483725385|271=100|10=127|8=FIX.4.4|9=160|35=W|34=41|49=MARKET_MAKER|52=20240909-09:31:17.000|56=CLIENT|55=USD/BRL|262=655933|268=2|269=0|270=133.348269708799|271=100|269=1|270=133.368269708799|271=100|10=180|8=FIX.4.4|9=158|35=W|34=42|49=MARKET_MAKER|52=20240909-09:31:22.000|56=CLIENT|55=USD/BRL|262=655933|268=2|269=0|270=132.93083998274|271=100|269=1|270=132.95083998274|271=100|10=066|8=FIX.4.4|9=160|35=W|34=43|49=MARKET_MAKER|52=20240909-09:31:27.000|56=CLIENT|55=USD/BRL|262=655933|268=2|269=0|270=132.599614585679|271=100|269=1|270=132.619614585679|271=100|10=176|8=FIX.4.4|9=160|35=W|34=44|49=MARKET_MAKER|52=20240909-09:31:32.000|56=CLIENT|55=USD/BRL|262=655933|268=2|269=0|270=132.575030964963|271=100|269=1|270=132.595030964963|271=100|10=148|8=FIX.4.4|9=160|35=W|34=45|49=MARKET_MAKER|52=20240909-09:31:37.000|56=CLIENT|55=USD/BRL|262=655933|268=2|269=0|270=132.256127197523|271=100|269=1|270=132.276127197523|271=100|10=140|8=FIX.4.4|9=160|35=W|34=46|49=MARKET_MAKER|52=20240909-09:31:42.000|56=CLIENT|55=USD/BRL|262=655933|268=2|269=0|270=131.893910332535|271=100|269=1|270=131.913910332535|271=100|10=128|8=FIX.4.4|9=158|35=W|34=47|49=MARKET_MAKER|52=20240909-09:31:47.000|56=CLIENT|55=USD/BRL|262=655933|268=2|269=0|270=132.36754027649|271=100|269=1|270=132.38754027649|271=100|10=060|8=FIX.4.4|9=160|35=W|34=48|49=MARKET_MAKER|52=20240909-09:31:52.000|56=CLIENT|55=USD/BRL|262=655933|268=2|269=0|270=132.311190560329|271=100|269=1|270=132.331190560329|271=100|10=120|8=FIX.4.4|9=160|35=W|34=49|49=MARKET_MAKER|52=20240909-09:31:57.000|56=CLIENT|55=USD/BRL|262=655933|268=2|269=0|270=132.324082276261|271=100|269=1|270=132.344082276261|271=100|10=132|8=FIX.4.4|9=160|35=W|34=50|49=MARKET_MAKER|52=20240909-09:32:02.000|56=CLIENT|55=USD/BRL|262=655933|268=2|269=0|270=131.881381336225|271=100|269=1|270=131.901381336225|271=100|10=118|8=FIX.4.4|9=160|35=W|34=51|49=MARKET_MAKER|52=20240909-09:32:07.000|56=CLIENT|55=USD/BRL|262=655933|268=2|269=0|270=132.376266828272|271=100|269=1|270=132.396266828272|271=100|10=153|8=FIX.4.4|9=160|35=W|34=52|49=MARKET_MAKER|52=20240909-09:32:12.000|56=CLIENT|55=USD/BRL|262=655933|268=2|269=0|270=132.376675094946|271=100|269=1|270=132.396675094946|271=100|10=164|8=FIX.4.4|9=160|35=W|34=53|49=MARKET_MAKER|52=20240909-09:32:17.000|56=CLIENT|55=USD/BRL|262=655933|268=2|269=0|270=132.578999190547|271=100|269=1|270=132.598999190547|271=100|10=184|8=FIX.4.4|9=160|35=W|34=54|49=MARKET_MAKER|52=20240909-09:32:22.000|56=CLIENT|55=USD/BRL|262=655933|268=2|269=0|270=132.133200049479|271=100|269=1|270=132.153200049479|271=100|10=119|8=FIX.4.4|9=160|35=W|34=55|49=MARKET_MAKER|52=20240909-09:32:27.000|56=CLIENT|55=USD/BRL|262=655933|268=2|269=0|270=131.673779718031|271=100|269=1|270=131.693779718031|271=100|10=157|8=FIX.4.4|9=160|35=W|34=56|49=MARKET_MAKER|52=20240909-09:32:32.000|56=CLIENT|55=USD/BRL|262=655933|268=2|269=0|270=132.066691741687|271=100|269=1|270=132.086691741687|271=100|10=160|8=FIX.4.4|9=160|35=W|34=57|49=MARKET_MAKER|52=20240909-09:32:37.000|56=CLIENT|55=USD/BRL|262=655933|268=2|269=0|270=131.807093201518|271=100|269=1|270=131.827093201518|271=100|10=130|8=FIX.4.4|9=160|35=W|34=58|49=MARKET_MAKER|52=20240909-09:32:42.000|56=CLIENT|55=USD/BRL|262=655933|268=2|269=0|270=132.083238428499|271=100|269=1|270=132.103238428499|271=100|10=152|8=FIX.4.4|9=160|35=W|34=59|49=MARKET_MAKER|52=20240909-09:32:47.000|56=CLIENT|55=USD/BRL|262=655933|268=2|269=0|270=131.610732471558|271=100|269=1|270=131.630732471558|271=100|10=143|8=FIX.4.4|9=160|35=W|34=60|49=MARKET_MAKER|52=20240909-09:32:52.000|56=CLIENT|55=USD/BRL|262=655933|268=2|269=0|270=131.181341237443|271=100|269=1|270=131.201341237443|271=100|10=106|8=FIX.4.4|9=160|35=W|34=61|49=MARKET_MAKER|52=20240909-09:32:57.000|56=CLIENT|55=USD/BRL|262=655933|268=2|269=0|270=130.859805717045|271=100|269=1|270=130.879805717045|271=100|10=155|8=FIX.4.4|9=160|35=W|34=62|49=MARKET_MAKER|52=20240909-09:33:02.000|56=CLIENT|55=USD/BRL|262=655933|268=2|269=0|270=130.992457967875|271=100|269=1|270=131.012457967875|271=100|10=167|8=FIX.4.4|9=160|35=W|34=63|49=MARKET_MAKER|52=20240909-09:33:07.000|56=CLIENT|55=USD/BRL|262=655933|268=2|269=0|270=131.206608385557|271=100|269=1|270=131.226608385557|271=100|10=147|8=FIX.4.4|9=160|35=W|34=64|49=MARKET_MAKER|52=20240909-09:33:12.000|56=CLIENT|55=USD/BRL|262=655933|268=2|269=0|270=131.540231887816|271=100|269=1|270=131.560231887816|271=100|10=140|8=FIX.4.4|9=160|35=W|34=65|49=MARKET_MAKER|52=20240909-09:33:17.000|56=CLIENT|55=USD/BRL|262=655933|268=2|269=0|270=131.265798333001|271=100|269=1|270=131.285798333001|271=100|10=134|8=FIX.4.4|9=160|35=W|34=66|49=MARKET_MAKER|52=20240909-09:33:22.000|56=CLIENT|55=USD/BRL|262=655933|268=2|269=0|270=131.264869395182|271=100|269=1|270=131.284869395182|271=100|10=163|8=FIX.4.4|9=160|35=W|34=67|49=MARKET_MAKER|52=20240909-09:33:27.000|56=CLIENT|55=USD/BRL|262=655933|268=2|269=0|270=131.379009951651|271=100|269=1|270=131.399009951651|271=100|10=153|8=FIX.4.4|9=160|35=W|34=68|49=MARKET_MAKER|52=20240909-09:33:32.000|56=CLIENT|55=USD/BRL|262=655933|268=2|269=0|270=131.351622210458|271=100|269=1|270=131.371622210458|271=100|10=118|8=FIX.4.4|9=160|35=W|34=69|49=MARKET_MAKER|52=20240909-09:33:37.000|56=CLIENT|55=USD/BRL|262=655933|268=2|269=0|270=130.922226689775|271=100|269=1|270=130.942226689775|271=100|10=174|8=FIX.4.4|9=160|35=W|34=70|49=MARKET_MAKER|52=20240909-09:33:42.000|56=CLIENT|55=USD/BRL|262=655933|268=2|269=0|270=130.976334260544|271=100|269=1|270=130.996334260544|271=100|10=138|8=FIX.4.4|9=158|35=W|34=71|49=MARKET_MAKER|52=20240909-09:33:47.000|56=CLIENT|55=USD/BRL|262=655933|268=2|269=0|270=130.51058038695|271=100|269=1|270=130.53058038695|271=100|10=049|8=FIX.4.4|9=160|35=W|34=72|49=MARKET_MAKER|52=20240909-09:33:52.000|56=CLIENT|55=USD/BRL|262=655933|268=2|269=0|270=130.178257536901|271=100|269=1|270=130.198257536901|271=100|10=143|8=FIX.4.4|9=160|35=W|34=73|49=MARKET_MAKER|52=20240909-09:33:57.000|56=CLIENT|55=USD/BRL|262=655933|268=2|269=0|270=129.765251914689|271=100|269=1|270=129.785251914689|271=100|10=183|8=FIX.4.4|9=160|35=W|34=74|49=MARKET_MAKER|52=20240909-09:34:02.000|56=CLIENT|55=USD/BRL|262=655933|268=2|269=0|270=129.451074964727|271=100|269=1|270=129.471074964727|271=100|10=161|8=FIX.4.4|9=160|35=W|34=75|49=MARKET_MAKER|52=20240909-09:34:07.000|56=CLIENT|55=USD/BRL|262=655933|268=2|269=0|270=129.840614966604|271=100|269=1|270=129.860614966604|271=100|10=163|8=FIX.4.4|9=160|35=W|34=76|49=MARKET_MAKER|52=20240909-09:34:12.000|56=CLIENT|55=USD/BRL|262=655933|268=2|269=0|270=129.904814624341|271=100|269=1|270=129.924814624341|271=100|10=144|8=FIX.4.4|9=160|35=W|34=77|49=MARKET_MAKER|52=20240909-09:34:17.000|56=CLIENT|55=USD/BRL|262=655933|268=2|269=0|270=130.121827078363|271=100|269=1|270=130.141827078363|271=100|10=138|8=FIX.4.4|9=158|35=W|34=78|49=MARKET_MAKER|52=20240909-09:34:22.000|56=CLIENT|55=USD/BRL|262=655933|268=2|269=0|270=129.62788954724|271=100|269=1|270=129.64788954724|271=100|10=090|8=FIX.4.4|9=160|35=W|34=79|49=MARKET_MAKER|52=20240909-09:34:27.000|56=CLIENT|55=USD/BRL|262=655933|268=2|269=0|270=129.228521634424|271=100|269=1|270=129.248521634424|271=100|10=147|8=FIX.4.4|9=160|35=W|34=80|49=MARKET_MAKER|52=20240909-09:34:32.000|56=CLIENT|55=USD/BRL|262=655933|268=2|269=0|270=129.504901024323|271=100|269=1|270=129.524901024323|271=100|10=115|8=FIX.4.4|9=160|35=W|34=81|49=MARKET_MAKER|52=20240909-09:34:37.000|56=CLIENT|55=USD/BRL|262=655933|268=2|269=0|270=129.327333417068|271=100|269=1|270=129.347333417068|271=100|10=149|8=FIX.4.4|9=160|35=W|34=82|49=MARKET_MAKER|52=20240909-09:34:42.000|56=CLIENT|55=USD/BRL|262=655933|268=2|269=0|270=129.553377969464|271=100|269=1|270=129.573377969464|271=100|10=188|8=FIX.4.4|9=160|35=W|34=83|49=MARKET_MAKER|52=20240909-09:34:47.000|56=CLIENT|55=USD/BRL|262=655933|268=2|269=0|270=129.667850461575|271=100|269=1|270=129.687850461575|271=100|10=178|8=FIX.4.4|9=160|35=W|34=84|49=MARKET_MAKER|52=20240909-09:34:52.000|56=CLIENT|55=USD/BRL|262=655933|268=2|269=0|270=129.552003317689|271=100|269=1|270=129.572003317689|271=100|10=153|8=FIX.4.4|9=160|35=W|34=85|49=MARKET_MAKER|52=20240909-09:34:57.000|56=CLIENT|55=USD/BRL|262=655933|268=2|269=0|270=129.127670872501|271=100|269=1|270=129.147670872501|271=100|10=153|8=FIX.4.4|9=160|35=W|34=86|49=MARKET_MAKER|52=20240909-09:35:02.000|56=CLIENT|55=USD/BRL|262=655933|268=2|269=0|270=129.175741534637|271=100|269=1|270=129.195741534637|271=100|10=159|8=FIX.4.4|9=160|35=W|34=87|49=MARKET_MAKER|52=20240909-09:35:07.000|56=CLIENT|55=USD/BRL|262=655933|268=2|269=0|270=128.764045062683|271=100|269=1|270=128.784045062683|271=100|10=159|8=FIX.4.4|9=160|35=W|34=88|49=MARKET_MAKER|52=20240909-09:35:12.000|56=CLIENT|55=USD/BRL|262=655933|268=2|269=0|270=128.756053968128|271=100|269=1|270=128.776053968128|271=100|10=174|8=FIX.4.4|9=160|35=W|34=89|49=MARKET_MAKER|52=20240909-09:35:18.000|56=CLIENT|55=USD/BRL|262=655933|268=2|269=0|270=128.672292041051|271=100|269=1|270=128.692292041051|271=100|10=139|8=FIX.4.4|9=160|35=W|34=90|49=MARKET_MAKER|52=20240909-09:35:23.000|56=CLIENT|55=USD/BRL|262=655933|268=2|269=0|270=129.032905637372|271=100|269=1|270=129.052905637372|271=100|10=145|8=FIX.4.4|9=160|35=W|34=91|49=MARKET_MAKER|52=20240909-09:35:28.000|56=CLIENT|55=USD/BRL|262=655933|268=2|269=0|270=129.307723275718|271=100|269=1|270=129.327723275718|271=100|10=161|8=FIX.4.4|9=160|35=W|34=92|49=MARKET_MAKER|52=20240909-09:35:33.000|56=CLIENT|55=USD/BRL|262=655933|268=2|269=0|270=129.610339305224|271=100|269=1|270=129.630339305223|271=100|10=129|